:020000040800F2
:1000000000200010A98400089D8100089F8100083D
:10001000A1810008A3810008A5810008000000005C
:10002000000000000000000000000000A7810008A0
:10003000A981000800000000AB810008AD81000824
:10004000CD840008D1840008D5840008D984000834
:10005000DD840008E1840008E5840008E9840008E4
:10006000ED840008F1840008F5840008F984000894
:100070002F820008FD8400083582000801850008F1
:1000800005850008098500080D8500081185000810
:100090003B82000815850008198500081D850008A9
:1000A0002185000825850008298500082D85000880
:1000B0003185000835850008398500083D85000830
:1000C0004185000845850008498500084D850008E0
:1000D0005185000841820008478200084D820008CF
:1000E00055850008598500085D8500086185000870
:1000F00065850008698500086D8500087185000820
:1001000075850008798500087D85000881850008CF
:1001100085850008898500088D850008918500087F
:100120009585000899850008618200089D85000872
:10013000A1850008A5850008A9850008AD850008EF
:10014000B1850008B5850008B9850008BD8500089F
:10015000C1850008C585000867820008C9850008B8
:10016000CD850008D1850008D5850008D98500080F
:10017000DD850008E1850008E58500080000000035
:10018000E9850008ED85000881B000F5E07002689F
:10019000914203D343681A44914202D380680028F5
:1001A000F5D101B07047DFF80017086890B94FF437
:1001B000805048604FF480324FF0FF308A60C86052
:1001C00008610420DFF8E426DFF8E4364861C2F86D
:1001D000BC010B600120704701F1080313F0070F09
:1001E0000EBF0023C3F1080303F007031944D21A1A
:1001F0008161C26042F001034B60091D28238B50CE
:10020000DFF8A4160A69C26170472DE9FC4B074666
:1002100001F1080010F0070F0FBF8946C0F1080078
:1002200000F0070001EB000902F1080111F0070FCF
:1002300006D002F10800C0F1080000F007000244F7
:100240001546A5EB090009EB0306A0EB030B43F0F1
:100250000303C9F80430AE4228BF00F051FF2879EB
:10026000C10758BF00F04CFFBBF1100F38BF00F0C2
:1002700047FFB869854207D1F8685844F860BE6105
:1002800040F00100706050E1786985420AD1B86899
:100290008344C7F808B07E614BF00100706046F8F7
:1002A0000BB042E1686800F00301012940F0AB8027
:1002B000C008C0000190C0081F2839D8AC68D5F824
:1002C0000C800090454508BF00F01AFFA54208BF0A
:1002D00000F016FF68680099C008C000B0EBC10FBD
:1002E00018BF00F00DFF009907F1280000EBC100D6
:1002F000844206D03A699442C0F08080E168A94205
:100300007CD1A04506D100983968012282409143F2
:10031000396075E0804506D0386980456ED3D8F8DD
:100320000800A8426AD1C4F80C80C8F8084067E009
:10033000EC68D5F81880AC420CD0A86839698842BE
:1003400022D3C168A94204BFA168A9421CD1C460DC
:10035000A0601BE005F11402146834B905F1100225
:1003600014689CB101E01A46146804F1140319687A
:10037000002902BF04F1100318680028F3D139697D
:100380008A4228BF106001D200F0BAFEB8F1000F17
:1003900036D0E96907F5987000EB81000268954254
:1003A00008D10460A4B9E8697968012282409143C8
:1003B000796025E03869804508D3D8F81000A84254
:1003C00014BFC8F81440C8F8104001E000F098FECF
:1003D000B4B139698C4211D3C4F81880286928B1A6
:1003E000884226BF2061846100F08AFE686938B1C6
:1003F0003969884202D36061846101E000F080FEC7
:1004000001982D18834468684008400068604BF0EC
:10041000010171604FEADB0446F80BB01F2C23D8B2
:1004200007F1280000EBC4084546BBF1100F38BFA8
:1004300000F066FE386820FA04F1C90705D40121EE
:1004400001FA04F404433C6007E0D8F80800396975
:1004500088422CBF054600F053FEC8F80860EE60E5
:10046000B560C6F80C8060E05FEA1B2008BF002181
:1004700023D0B0F5803F28BF1F211ED2A0F5807287
:10048000120C02F008029040A0F58051090C01F016
:1004900004018840A0F580431B0CC2F10E0203F05A
:1004A0000203521AD21A984002EBD032D01D2BFA16
:1004B00000F101F0010101EB420107F5987202EB36
:1004C0008100F1610022726132617A6822FA01F3DF
:1004D000DB0707D4012303FA01F1114379600660B9
:1004E000B0611DE002681F291DBF4908C1F1190153
:1004F0000BFA01F1594600E002465068C008C000FE
:10050000584516D002F11003CC0F03EB84034900C9
:1005100018680028F0D13869834204D31E60B261A4
:10052000F660B66001E000F0EBFD09F10800BDE8FF
:10053000F68B396990688A4228BF8842F3D3C66037
:100540009660B060F2600020B061EEE72DE9FE4FEA
:1005500004468B46A5692E46904699463146FFF7DC
:1005600013FEA8F128020168406801EB000AAAF115
:10057000270111F007000EBF0021C1F1080101F0B1
:1005800007010AEB0100A0F12F0706F110008742D6
:1005900038BF374607F118000190594600200090F7
:1005A0002046FFF719FE07F1080010F0070F18BFEB
:1005B00000F0A6FD1B20786007F1080104F5E0704B
:1005C00090E80C5081E80C50C0F800B0C0F80480EE
:1005D000C0F80C9081600198009900E0001D07228E
:1005E0004260491C00F108025245F7D30129D8BFE7
:1005F00000F086FDB74200F09580BF1B301D311D15
:10060000C05940084000C85147F0010171604FEAED
:10061000D70BF751BBF11F0F21D804EBCB0000F132
:100620002805A846102F38BF00F06AFD206820FA80
:100630000BF1C90705D4012101FA0BF10843206031
:1006400006E0A868216988422CBF804600F058FD6A
:10065000AE60C8F80C60C6F80880F5606FE0380A34
:1006600008BF002123D0B0F5803F28BF1F211ED234
:10067000A0F58072120C02F008029040A0F58051A3
:10068000090C01F004018840A0F580431B0CC2F165
:100690000E0203F00203521AD21A984002EBD03233
:1006A000D01D27FA00F101F0010101EB420104EB3A
:1006B0008102002302F59870F16173613361626811
:1006C00022FA01F3DB0707D4012303FA01F11143F6
:1006D00061600660B0611DE002681F291DBF490806
:1006E000C1F1190107FA01F1394600E002465068EC
:1006F000C008C000B84216D002F11003C80F03EBC7
:100700008003490018680028F0D12069834204D38F
:100710001E60B261F660B56011E003B0BDE8F04F55
:1007200000F0EEBC0BE0216990688A4228BF884245
:10073000F3D3C6609560B060F2600020B06103B092
:10074000BDE8F08F2DE9F041574F054638688846DF
:1007500008B9FFF728FDB96801EB08002F30491EE2
:1007600020EA010188457DD205F5D876B06828B128
:10077000326889188A4275D2884273D300F0D0FC5F
:1007800001001CBF0C6811F1010F6BD030682018FC
:1007900005F5D87230605368984238BF18467060CB
:1007A000A86960BB286908B1814200D22961316122
:1007B00074610020F06105F12802386868624FF02A
:1007C000FF3028620020D260926002F1080353617A
:1007D0001361801C10322028F5D33448854208BFAD
:1007E000A4F1280228D055F8040CC00805EBC0027B
:1007F000A2F108000A19121A283A01461CE005F570
:10080000E070024600E092687AB3136857683B4490
:100810009942F8D1137B1F0727D4AB691768BB42F5
:1008200023D3D2F804C06744BB421ED2A444C2F80A
:1008300004C0E868A96922182846FFF7CDFC1FE02C
:100840008068C0B103689342FAD1027B130712D4C7
:10085000026801604368E418446043462846BDE8E6
:10086000F041D2E40020BDE8F0812A69914238BF0E
:1008700029610A19E5E7002322462846FFF766FEAC
:10088000E8688045EED2A0EB0800A969E86001EBBA
:100890000802AA6140F00100506048F0030048607F
:1008A00001F10800BDE8F081740F0020140700205A
:1008B0006859883C2DE9F84F00258946090AC9F195
:1008C000000B08BF002323D0B1F5803F28BF1F23B2
:1008D0001ED2A1F58072120C02F008029140A1F51F
:1008E00080531B0C03F004039940A1F58044240CB1
:1008F000C2F10E0204F00204D21A121BA14002EB54
:10090000D132D11D29FA01F303F0010303EB4203B5
:10091000074607F5987858F8230030B31F2B0FBF10
:100920004C465C08C4F1190409FA04F4AC46594673
:1009300000E064004268D208D200A2EB09028A42B9
:1009400003D21100054600F06881426910304FEA79
:10095000D47B50F82B00002A1CBF8242944600280A
:10096000E7D18B466046B0BBBDBB012000FA03F364
:100970005B00584203437868034000F04D815842C1
:1009800003405B1E180B00F01000C340590901F032
:100990000801CB409A0802F00402D3405C0804F03E
:1009A00002040818E3401018C3F34006201830442E
:1009B000F3401B1858F823000DE008464168C908A9
:1009C000C900A1EB090159453CBF8B4605460169A9
:1009D0000029F2D140690028F0D1002D00F01C81DF
:1009E000B868A0EB0900834580F01681386985421C
:1009F000C0F010816868C008C00009EB0B01884294
:100A000018BF00F07DFB05EB0906B54280F00281BE
:100A1000EC68D5F818A0AC420CD0A86839698842B7
:100A200022D3C168A94204BFA168A9421CD1C460F5
:100A3000A0601BE005F11402146834B905F110023E
:100A400014689CB101E01A46146804F11403196893
:100A5000002902BF04F1100318680028F3D1396996
:100A60008A4228BF106001D200F04AFBBAF1000FA1
:100A700036D0E96908EB81000268954209D104602B
:100A8000200014D1E869796801228240914379609D
:100A900026E03869824508D3DAF81000A84214BF6E
:100AA000CAF81440CAF8104001E000F029FBBCB1BC
:100AB0003869844212D3C4F818A0286930B1396962
:100AC000884226BF2061846100F01AFB686938B152
:100AD0003969884202D36061846101E000F010FB53
:100AE000BBF1100F0CD2D94449F003006860291DF6
:100AF000281D50F8090040F0010041F8090088E085
:100B000049F0030068604BF0010070604FEADB00C1
:100B100046F80BB01F281DD807EBC00101F12804CF
:100B2000396821FA00F2D207A34605D4012202FA5D
:100B300000F00843386006E0A068396988422CBF9D
:100B4000834600F0DDFAA660CBF80C60C6F808B06A
:100B5000F4605EE05FEA1B2008BF002123D0B0F5FF
:100B6000803F28BF1F211ED2A0F58072120C02F018
:100B700008029040A0F58051090C01F00401884062
:100B8000A0F580431B0CC2F10E0203F00203521ABF
:100B9000D21A984002EBD032D01D2BFA00F101F0AE
:100BA000010101EB4201F16100227261326108EB47
:100BB00081007A6822FA01F3DB0707D4012303FAE4
:100BC00001F1114379600660B0611DE002681F29E0
:100BD0001DBF4908C1F119010BFA01F1594600E0A6
:100BE00002465068C008C000584518D002F11003F2
:100BF000CC0F03EB8403490018680028F0D1386952
:100C0000834204D31E60B261F660B66001E000F07A
:100C100077FA13E100F074FA0DE18B46A3E6396927
:100C200090688A4228BF8842F1D3C6609660B0605F
:100C3000F2600020B061ECE72DE9F84F06468846E7
:100C4000716848420140491E080B00F01000C14085
:100C50004A0902F00802D1408B0803F00403D9408E
:100C60004D0805F002051018E9401818C1F34004BA
:100C7000281806F5987A2044E14009185AF82110FE
:100C80004868C008C0000D46A0EB080909E001460D
:100C90004868C008C000A0EB080048453CBF81463A
:100CA0000D4608690028F2D149690029F0D1306960
:100CB0008542C0F0BE806868C00808EB090BC00020
:100CC000584518BF00F01CFA05EB0800854200905B
:100CD00080F0AF80EF68AC69AF420CD0A868316992
:100CE000884222D3C168A94204BFB968A9421CD175
:100CF000C760B8601BE005F11402176837B905F149
:100D0000100217689FB101E01A46176807F1140333
:100D10001968002902BF07F1100318680028F3D1F1
:100D200031698A4228BF106001D200F0E9F9002C35
:100D300031D0E9690AEB81000268954208D1076069
:100D40008FB9E8697168012282409143716022E0A5
:100D50003069844205D32069A84214BF67612761C6
:100D600001E000F0CDF9B7B13069874211D3BC6121
:100D7000286930B13169884226BF3861876100F047
:100D8000BFF9686938B13169884202D378618761F7
:100D900001E000F0B5F9B9F1100F0BD24BF00300F0
:100DA0006860291D281D50F80B0040F0010041F833
:100DB0000B003DE048F00301696049F00100291D86
:100DC00041F80800009840F80990D6F808804FEAEA
:100DD000D80BBBF1200F28BF00F092F9B8F1000F3B
:100DE00022D006EBCB00776900F12804A246B8F1C7
:100DF000100F38BF00F084F9306820FA0BF1C907F2
:100E000005D4012101FA0BF10843306006E0A06827
:100E1000316988422CBF824600F072F9A760CAF897
:100E20000C70C7F808A0FC60C6F8089000987061C4
:100E300004E000F065F90020BDE8F28F05F108003C
:100E4000BDE8F28F2DE9FE4F0546AFF30080F52D8A
:100E5000DFF8A86280F004810B2D31BF10250B351F
:100E6000ED08ED003068EC08E04010F0030F46D0CC
:100E7000C04300F00100041906F1280000EBC4088B
:100E8000E700D8F808506868C008C000B84218BF2A
:100E900000F036F9D5F80890454508BF00F030F964
:100EA0004D4508BF00F02CF96868C008C000B84282
:100EB00018BF00F025F9C84507D13168012000FAB4
:100EC00004F421EA040434600DE03069814508D35C
:100ED000D9F80C00A84204D1C8F80890C9F80C80D1
:100EE00001E000F00DF947F003006860291D281D9E
:100EF00005F10804C05940F00100C851F8E0B1689C
:100F0000A94280F0BE80002800F0A1804FF00108C7
:100F100008FA04F1490000FA04F4484201430C4085
:100F200060420440641E200B00F01000C4406109C0
:100F300001F00801CC40A20802F00402D44063088A
:100F400003F002030818DC401018C4F34007181817
:100F50003818FC40241806F1280000EBC40AE7000A
:100F6000DAF80890D9F80400C008C000B84218BFE9
:100F700000F0C6F8D9F808B0D14508BF00F0C0F8B5
:100F8000D94508BF00F0BCF8D9F80400C008C0007B
:100F9000B84218BF00F0B4F8DA4506D1316808FA53
:100FA00004F421EA040434600DE03069834508D379
:100FB000DBF80C00484504D1CAF808B0CBF80CA007
:100FC00001E000F09DF845F00300C9F804007F1B24
:100FD00009F1040147F00100485109EB05000190B7
:100FE000C751B4684FEAD40ABAF1200F28BF00F005
:100FF00087F834B3CDF800A006F12800756900EB3E
:10100000CA0AD346102C38BF00F07AF8316800982D
:1010100021FA00F2D30704D408FA00F00843306044
:1010200007E0DAF80800316988422CBF834600F0F7
:1010300067F8CAF80850CBF80C50C5F808B0C5F8E6
:101040000CA0B76009F108040198706150E0706865
:10105000C0B329463046FFF7EFFD040011D047E04A
:1010600015F1400F28BF4FF0FF350AD20B35ED08C0
:101070007068ED0028B129463046FFF71BFC0400DC
:1010800036D1B068A8421DD3411B726910290AD31A
:1010900050197061B16041F001034360415045F067
:1010A000030555600BE00021B1607161131D40F034
:1010B00003015160111D095841F00101195002F15D
:1010C000080415E0F06885420DD2401BB169F0605C
:1010D0004A19B26140F00100506045F003054D60CF
:1010E00001F1080404E029463046FFF72BFB0446D3
:1010F000AFF300802046FFF722BB0000140700205A
:10110000012000F023B88268521C8260426832B12C
:101110000268531C036011704168491E41607047AA
:101120000749086808B1002070470648C008C00099
:1011300008600549C908C900091A0160704700BF65
:10114000C00F0020CF0F0020C82F002080B5AFF3C4
:101150000080024A11001820ABBEFBE72600020007
:101160002DE9F0439FB000BF66A6269CDFF8E48A15
:1011700002918DF83B4000210B914FF0FF37044660
:1011800091461D460AE019F8011B0298A047002865
:10119000029000F0A4800B98401C0B9099F800007E
:1011A00050B12528EFD1002000210590069107902D
:1011B000089109900A9103E00B98A7E041F0010122
:1011C00019F8010F2028F9D023280CD02B2804D09F
:1011D0002D2805D0302809D083E041F00201EFE747
:1011E00041F00401ECE741F00801E9E741F01001AA
:1011F000E6E700200D900AE00D98404505DA00EB87
:10120000800302EB4302303A0D9209F1010999F88B
:101210000020A2F130000A28EED399F800002E2811
:1012200018BF0C9726D119F8010F2A2808D1286871
:10123000286009F1010950F8042B28600C9219E08C
:101240002D280CBF19F8010B002000220C920BE096
:1012500040B90C9A424505DA02EB820203EB4203E5
:10126000303B0C9309F1010999F80030A3F13002E9
:101270000A2AEDD3ADF83810304699F8001000F086
:1012800081FE08B119F8010B8DF83A009DF83A007B
:10129000682804BF99F80010682903D162208DF8EE
:1012A0003A0008E06C2804BF99F800006C2804D1CB
:1012B00071218DF83A1009F1010910A804902A460D
:1012C00019F8013B6946204600F060F838B910AAC9
:1012D0006946204600F08CF900287FF55FAF38465C
:1012E00014E02A2885D12A682A6052F8040B2A6063
:1012F00000280D9003D540420D9041F0040109F102
:1013000001098AE7686A6C747A4C00001FB0BDE876
:10131000F083622820D0682811D06A2803D06C2876
:1013200027D0712825D10868C01D20F0070008606B
:10133000D0E9002308300860194610467047002A9B
:101340000A680A60106803D0121D0A6000B217E034
:10135000121D0A6080B217E0002A0A680A6010684D
:1013600003D0121D0A6040B20AE0121D0A60C0B22A
:101370000AE0002A0A680A60106803D0121D0A6099
:10138000C1177047121D0A600021704770B51C46D6
:101390000D46B4F125002E69114600F017811C3866
:1013A0006AD0001F022867D9133843D0093863D0A8
:1013B000801E16D0401E1ED0401E02285CD9001F81
:1013C00019D0401F00F08380401E33D0401E00F033
:1013D000CD80C01E00F0D880801E2BD0C01E29D02A
:1013E000FAE06869421C6A610A680A6052F8043BC4
:1013F0000A603354FAE095F83A000122FFF789FFBA
:10140000C5E900010023994204DA6869411C696159
:101410002D210DE0288F810704D56869411C696181
:101420002B2105E0C00722D56869411C6961202194
:1014300031541CE095F83A000022FFF76AFFC5E935
:10144000000195F83800010711D5D5E900230020E7
:10145000834208BF82420AD044F02000782806D197
:10146000686930213154401C411C69613454214663
:1014700068693044E86083E00868C01D20F0070018
:101480000860D0E9002308300860C5E90023D5E9E9
:101490000001C80F04D06869411C69612D210DE06D
:1014A000288F810704D56869411C69612B2105E0FB
:1014B000C00704D56869411C6961202131546869FD
:1014C0003044E8602146284600F0C4F98EE005F17A
:1014D0003A02507820B14FF0FF340FF648205EE01A
:1014E0001078622808D0682824D06A2812D06C2886
:1014F0002ED071280ED02BE00A680A6052F8040B37
:101500000A6020B94FF0FF340FF6302047E0E96A57
:1015100001706BE00A680A6052F8040B0A6020B997
:101520004FF0FF340FF6142039E0EA6AD317C0E910
:1015300000235BE00A680A6052F8040B0A6020B9D5
:101540004FF0FF340FF6F41029E0E96A01804DE016
:101550000A680A6052F8040B0A6020B94FF0FF34A1
:101560000FF6D8101BE0E96A01603FE00A680A60E4
:1015700052F8040B0A600021C5E90001EE607821F1
:10158000284600F0BBF831E00868086050F8044BCA
:101590000860EC603CB94FF0FF340FF6B81000F073
:1015A000FDFC201A70BD2E6B002E04D5204600F0E5
:1015B00015FD044608E032460021204600F02AFDD1
:1015C000002814BF041B3446AC610FE06869411C5D
:1015D00069612521315409E06969481C6861252247
:1015E0007254210002D0411C69613454002070BD46
:1015F0002DE9FC410F460646796B7869BC6A091AE9
:10160000386A091AB869091A786A091AF869091A48
:1016100097F838000C1B410790460FD42021002C6E
:101620008DF800100ADD254601236A46394630460A
:1016300000F060FC00285DD16D1EF5D17B6942464B
:101640003946304600F056FC002853D130208DF842
:1016500000003D6A002D09DD01236A463946304607
:1016600000F048FC002845D16D1EF5D1BB69FA6831
:101670003946304600F03EFC00283BD130208DF842
:1016800000007D6A002D08DD01236A463946304698
:1016900000F030FC70BB6D1EF6D1F868B969FB69CB
:1016A00042183946304600F025FC18BB30208DF832
:1016B0000000BD6A002D08DD01236A463946304628
:1016C00000F018FCB0B96D1EF6D197F8380041074C
:1016D0000DD52021002C8DF8001008DD01236A466D
:1016E0003946304600F006FC20B9641EF6D10020D1
:1016F000BDE8F6814FF0FF30BDE8F6812DE9FC47EB
:1017000007468A463E69BAF16F0F08BF082405D024
:101710004AF02001782914BF0A2410243C25D7E977
:101720000023BAF1640F18BFBAF1690F90469946C9
:1017300006D100218B4203DAD8F1000869EB490990
:101740000020814508BF80451FD1386BE8B9082CBF
:101750004CD197F83800010748D530203B2586F852
:101760003B0043E000280ED597F8380000F0140045
:10177000102808D17A6B7869121A386A121A511A2D
:101780000029C8BF3962BDE8F3878DF800A0404644
:1017900049462246E31700F069FC3032D0B26D1E94
:1017A0003A28019504DB9DF80000A0F151018A1848
:1017B0007255404649462246E31700F057FC8046E2
:1017C00089460020814508BF804503D0F86871191B
:1017D0008842DCD3082C09D197F83800010705D5D9
:1017E000715D302902D06D1E30207055C5F13C016D
:1017F000B9617019F860386B8142B3DA411A396205
:101800004FF6EF70398F01403987BDE8F3872DE936
:10181000D04306460F4614464FF00008DFF83894D0
:1018200012E0E00707D542464B463046394600F005
:1018300035FD06460F464046494642464B4600F0B7
:101840002DFD641080468946002CEAD13046394689
:10185000BDE8D0832DE9F34F054641F020048DB05B
:10186000D5E90089612C02AE09D0286B002848BF59
:10187000062003D408BF672C01D101202863D5E9D5
:10188000002358004015401C0ED119030CD0032032
:10189000A8619DF8380061381A2802D20FF2D06191
:1018A00011E00FF2D0610EE058004015401C0FD13E
:1018B00019030DD10320A8619DF8380061381A285A
:1018C00014D30FF2B861E868032200F0B9FDD3E148
:1018D000194621F00043B3F5801F10460DD20027B2
:1018E000BB4208BFBA42019703D111E00FF28861F1
:1018F000E9E701AA00F0F8FD0AE0DFF8607307EB02
:101900001352DFF85C3301921940DFF85833194362
:10191000C5E90001612C0ED1E86830210170811CFD
:10192000E9609DF8381061290CBF78215821417079
:101930006869801C6861D5E900AB2BF0004300208A
:101940002AF00002834204BF8242002300F05A8141
:10195000612C40F0A980286B00284CBF2120401C3E
:1019600000904046009F7F1C49460022002300F063
:10197000F3FDD94601988DF8082038BF89F0004959
:10198000001F0190002FD0460DF1090040F349815E
:1019900040F2FF71DFF8D0B20C910646404649464E
:1019A0000022002300F0F0FD80F03A814800400D55
:1019B00000F11C0210D0002A0EDD0C98824205DBDB
:1019C00009F0004040EA0B01002013E0A448084061
:1019D00040EA025140460DE029F00043002028F083
:1019E0000002834208BF82420FBF40461C2240468D
:1019F00000F0E2FD8046894600F07CFEFF1F002FCC
:101A0000044609DD00F094FE02460B464046494676
:101A100000F0A0FE80468946F01D072104E004F096
:101A20000F0200F8012D2411002C01DD491EF6D50E
:101A3000491E5CBF002200F8012DF9D5ECE0002022
:101A4000194602AA0A4400E05B1E12F80149491E29
:101A50008442F9D00F2804D10DF10900425C521CD8
:101A60004254002904D50198001D02AE5B1C019070
:101A7000591E12D49DF838007218147804F13008F9
:101A80005FFA88F4392CC4BFA0F13A04A044491E7F
:101A900002F80189F1D58DF83800286B002840F153
:101AA000B080591E2963ACE040464946002200231D
:101AB00000F052FD019938BF89F0004947F2975074
:101AC00041436A4A91FBF2F20192D2F1070204DD2E
:101AD00040464946FFF79BFE0AE052420020644917
:101AE000FFF795FE02460B464046494600F0A4FE2D
:101AF0008046662C286BDFF87CB106BF019F0A3751
:101B000006273F18142FC8BF142730208DF808006F
:101B100089460DF1090000E03046002F34DD06460D
:101B20004046494600F0ACFF01460A4606F108036C
:101B300004200A26B2FBF6F606EB860EA2EB4E0256
:101B4000303203F8012C0A22B6FBF2F202EB820ECD
:101B5000A6EB4E063036401E03F8026DE9D1083F71
:101B6000002F03F10806D7DD084600F09DFF02466E
:101B70000B464046494600F0EDFD00225B4600F072
:101B80008DFB80468946CBE70DF10901401A0DF126
:101B9000090604E00199491E401E0191761C317826
:101BA0003029F7D0662C02D10199491C03E0652C3D
:101BB0000CBF012100212B6BCB189842B8BF431EEC
:101BC000002B1ED4834204DAF05C3528A8BF3920EC
:101BD00000DA30201946721E02EB010800E05B1E9D
:101BE00018F80199491E8145F9D0392802D1705C55
:101BF000401C7054002904D50198401C16465B1CFB
:101C00000190019800B200901BB29DF83810324646
:101C1000284600F035F82FE0C61D002F3FF7BEAE76
:101C200030460DF10901401A009903468842C8BFA9
:101C30000B46002B0DF109063FF52FAF8342BFF68F
:101C4000FEAE0DF10900C05C07287FF7F8AE0F204B
:101C5000F6E60000CBCCCC0C0000244002FCFFFFD9
:101C6000FFFF0F800000E03F0000F07FA086010032
:101C70000000F03F84D797410FB0BDE8F08F00001F
:101C80002DE9FC43054683B01F46D5F83080002F70
:101C9000164602DC5FF00107B9A68946BDF930405F
:101CA00049F02000662808BF641C17D0672840F060
:101CB000888014F1040FC0F28A80444580F2878046
:101CC00095F83800641C010702D44745B8BFB846F0
:101CD00020B2B8EB000848BF4FF000080FFA84F9B3
:101CE000E868A969B9F1000F27DC4A1C3023435486
:101CF000B8F1000F03DC95F83800010703D5E86858
:101D00002E218154521C18EB090FB8BFC8F10004F2
:101D100024B260426862A044B845AA61B8BF474691
:101D2000E868AB693FB2EF613A463146184400F0CB
:101D300087FBA8EB0700A862C5E022B297420844DF
:101D400019DA3A46314600F07BFBA8693818A9EB4E
:101D50000707B8F1000FA8616F6203DC95F838102F
:101D60000A0705D5E9682E220A54E869401CE86193
:101D7000C5F82880A7E0314600F062FBA8693F1B48
:101D8000B8F1000F484403DC95F838100A0703D572
:101D9000E9682E220A54401CA86138B28045E868E0
:101DA000AB69B8BF47463AB206EB0901184400F0E8
:101DB00047FBA8693FB23818A8EB0707A8616F6214
:101DC00081E0B9F1610F16D14FF0700918E0474575
:101DD00004DA95F838100A0758BFB846B8F1010878
:101DE00048BF4FF00008B9F1670F14BF4FF0450925
:101DF0004FF0650904E0B9F1410F08BF4FF05009F9
:101E0000A969EB68481CA861B8F1000F16F8012B0E
:101E10005A5403DC95F838100A0719D5EA68431CB0
:101E2000AB612E211154B8F1000F11DD7F1E38B2C5
:101E30008045E868B8BF47463AB23146184400F0DA
:101E4000FFFAA8693FB23818A861A8EB07006862DA
:101E5000E868A9690844002C80F8009003D42B217D
:101E60004170811C03E02D2141706442811C0020DF
:101E70006A460AE023460A2493FBF4F404EB840642
:101E8000A3EB460302F8013B401C24B2002CF1DC1A
:101E9000012806DC49F02002652A04BF302201F83F
:101EA000012B48B9302001F8010B07E0401E1DF856
:101EB0000020303201F8012B0028F7DCE868AA691D
:101EC0001044091AE96195F8380000F01400102850
:101ED0000DD16969A8694118686A4118E869411813
:101EE000A86A4118686B8142BCBF411A296205B0DB
:101EF000BDE8F083F8B505460E4617461C4600209F
:101F000074B117F8011BB068A847B06030B1F06A2F
:101F1000401CF0620020641EF3D1F2BD4FF0FF3090
:101F2000F2BD00007072696E74665F733A20256EB0
:101F300020646973616C6C6F776564007072696EA0
:101F400074663A2062616420256E20617267756D47
:101F5000656E74007072696E74665F733A206261B8
:101F60006420257320617267756D656E74000000D2
:101F70006E616E004E414E00696E6600494E46002D
:101F8000300000000278C9B28A421AB11CBF10F8B2
:101F9000012FF9E718BF00207047000080B500B995
:101FA00006A005490B681BB122220021984701E0D9
:101FB000FFF7A6F8222002BDC40F0020636F6E73E6
:101FC000747261696E742068616E646C65723A2027
:101FD000626164206D6573736167650000F10103E0
:101FE000810704D010F8011B89B18107FAD102687A
:101FF000B2F10131914311F0803F04BF50F8042F3A
:10200000F6E710F8011B11B110F8011BFBE7C01A2D
:1020100070470000C9B2830706D0521E22D310F8C1
:10202000013B9942F7D11FE0083A13D302F10402B1
:1020300041EA012141EA014150F8043B121F21BF4E
:102040004B40A3F1013C2CEA030C1CF0803FF3D081
:10205000C9B2001F083210F8013B521E28BF91EA96
:10206000030FF8D818BF0120401E7047B3BBD9B189
:10207000B2F5803F7DD2022A1ED98C46B1FBF2F127
:1020800002FB11C31B0443EA1043B3FBF2FC02FB47
:102090001C3380B240EA0343B3FBF2F002FB103280
:1020A00040EA0C4000237047022A05D98446B0FB61
:1020B000F2F002FB10C270474AB105D100F00102F4
:1020C00049085FEA3000704700220023704700F0A3
:1020D000F9BC0B000200002100207047904271EB18
:1020E000030CF6D3B3F5803F2FD2F0B5B3FA83F7E4
:1020F000B1FA81F4A7F10F0E3D1B5340CEF120063B
:1021000002FA0EF2F3415340B5F10F0746D80F3CE7
:102110002C444140C4F12006A040F1414140B1FBB4
:10212000F3F603FB1611A2FB0645001BA94102D2E0
:10213000761E8018594180EA010221FA0EF362FAF4
:102140000EF200215A403046F0BD30B4B1FBF3FC32
:1021500003FB1C11A2FB0C45001BA94103D2ACF1EF
:10216000010C8018594130BC02460B4660460021E4
:102170007047B2F1807F65D3F0B5B2FA82F7B1FA59
:1021800081F4C7F10F063D1B22FA06F307F1110E89
:10219000F24120355A40B5F10F07B8D94140C4F19A
:1021A0002006A040F1414140B1FBF3FC03FB1C11B0
:1021B000A2FB0C45001BA94103D2BCF1010C801805
:1021C00059410F2F12D30F3FC90341EA5041B1FBD0
:1021D000F3F603FB1611A2FB0645D4EBC030A94170
:1021E00002D2761E8018594146EACC3C07B34140E2
:1021F000C7F12006B840F1414140B1FBF3F603FBC3
:102200001611A2FB0645001BA94102D2761E8018BA
:10221000594180EA010221FA0EF3C7F1200462FA63
:102220000EF20CFA07F05A402CFA04F13043F0BDDC
:1022300080EA010221FA0EF3002162FA0EF26046F2
:102240005A40F0BD8C46B1FBF2F102FB11C31B02F8
:1022500043EA1063B3FBF2FC02FB1C331B024CEAA3
:10226000002043EA1063B3FBF2FC02FB1C331B02A9
:102270004CEA002043EA1063B3FBF2FC02FB1C3380
:102280001B024CEA002043EA1063B3FBF2FC02FBA2
:102290001C324CEA0020002370470000B0B581EAF0
:1022A000030C0CF0004C40F2FF7515EA11541DBFF1
:1022B00015EA1357AC42AF4239E0E41923EA45531B
:1022C00043F48013C90241F0004141EA505EC70265
:1022D0001100A7FB020200284FF00000EEFB0120D6
:1022E0004FF00001E3FB072118BF42F00102401844
:1022F00000214941E3FB0E01A4F580640F0302D2E3
:1023000052004041494154F101046CDD470872F12B
:10231000004250F1000051EB0451A1F580115CBF67
:1023200041EA0C01B0BD4CEA05510020B0BD05EA00
:102330001357AC4214BFAF4241E050EA410E1CBFFC
:1023400052EA430E02E061460020B0BD24423C4404
:102350001BD15FEA070EF6D0090302BF0146002039
:10236000AEF1140EB1FA81F7AEEB070401FA07FEE5
:102370000C37C7F1200100FA07F7C8404EEA000EFB
:1023800023EA455343F48013A2E733F00043B3FA42
:1023900083F704BFB2FA82FE77440B3FE41BB7F128
:1023A000200E2FBF02FA0EF3BB40C7F1200E22FA17
:1023B0000EFE38BF43EA0E03BA40641C82E750EABF
:1023C000410E14BF52EA430E6FF000014FF40017A4
:1023D00017EB430F8ABF194617EB410FB5E74CEADD
:1023E00005510020B0BDD4F10104B4F120070FDA8B
:1023F000C4F12007520828BF42F0010210FA07F585
:1024000001FA07F7E1BF2A43E0403843E1400FE01B
:10241000352C98DCC7F1200452EA400220FA07F27A
:1024200018BF42F0010231FA07F0A1400A4300212F
:1024300072F1004250F1000051EB0C01B0BD000000
:1024400062B38B0708D0521E11F8013B00F8013B24
:1024500000F024808B07F6D1830740F0208000BF76
:10246000103A07D330B4B1E83810103AA0E8381069
:10247000F9D230BC530724BFB1E80810A0E8081017
:1024800044BF51F8043B40F8043BD20724BF31F865
:10249000022B20F8022B44BF0B7803707047121FE9
:1024A00017D35B0009D151F8043B20F8023B1B0C09
:1024B000121F20F8023BF6D20BE051F8043B00F863
:1024C000013B1B0A20F8023B1B0C121F00F8013BCA
:1024D000F3D238BF121D521E24BF11F8013B00F881
:1024E000013BF8D87047000010B5144600F002F820
:1024F000226010BDC1F30A5343B14A0012F5001F18
:1025000028D2A3F2FE32A1EB0251704750EA410CEF
:1025100020D001F0004C31EA0C01B1FA81F204BF85
:10252000B0FA80F3D2180B3AB2F120032CBF00FAB4
:1025300003F1914041EA0C013EBFC2F1200C20FAA8
:102540000CF319439040524240F2FD33D21A01EB92
:1025500003517047002270474FF4001C1CEB410FE1
:1025600094BF1CEB430F09E041EA030C50EA4C0C0A
:1025700052EA0C0C03D2994208BF9042704714BF34
:102580008B428242704700004FF4001C1CEB410F4D
:1025900094BF1CEB430F09E041EA030C50EA4C0CDA
:1025A00052EA0C0C03D28B4208BF8242704714BF20
:1025B0009942904270470000124254D440F2FF7C8E
:1025C0001CEA11530FD0634531D09B1863453CBFC3
:1025D00001EB0251704701F0004141EA0C5100202B
:1025E000AFF30080704750EA410320D001F0004C67
:1025F00091EA0C011CD0B1FA81F30B3B9A420DD940
:10260000D21A994051EA0C01C3F1200C20FA0CFCBB
:1026100061449840531C40F2FF7CD7E7914041EA67
:102620000C01C2F1200C20FA0CF3194390407047C2
:10263000B0FA80F31533202BE0D3202AEED3203AD2
:10264000203B9A4209D9D21A00FA03F141EA0C015F
:102650000020531C40F2FF7CB8E700FA02F141EA87
:102660000C0100207047524240F2FF7C1CEA1153DB
:102670000DD06345DBD0B2EB030C3CBFA1EB0251A4
:1026800070470CF1010221EA035141F4801150EA34
:10269000410CCCD001F0004C352A27DC30B481EA63
:1026A0000C01B2F1200309DAC2F12003044601FA59
:1026B00003F5D0402843D1409C400CE0C3F12002F8
:1026C000450020FA03F418BF44F0010421FA03F096
:1026D00091400C43002174F1004550F1000051EB92
:1026E0000C01244230BC7FF47BAF70476146002070
:1026F00076E70000C1F30A5340F2FE329B1A14DD64
:10270000D3F120034FEAE17208DDC90241EA5051DA
:1027100041F00040D84080185040704703F2E1304B
:1027200010B1D24382F00040704700207047000093
:10273000C11768B14840401AB0FA80F29040D21CEC
:10274000C907C2F5846241EA025202EBD02140057A
:102750007047000070B44FF0004591EA030F40F15C
:10276000BB816B40841A71EB030603D2001BB1419D
:10277000121973414FF4001C1CEB410F34BF7CEB6A
:10278000430442E00C0DA4EB1356352E4FDC45EA12
:10279000C323DB0A45EAC121C912B6F120050DDDCC
:1027A00063FA05F6EB4086EA0305124218BF45F0CE
:1027B0000105C01851F100010CD213E062FA06F5D0
:1027C000F2405540F3415A40B340F3405A4080181C
:1027D000594107D349085FEA30005FEA350528BF51
:1027E00045F0010501F58011420875F1004250F1F4
:1027F000000041EB04514E0016F5001F70BC38BFBD
:1028000070470020090D090570471CEB410F10D2DD
:1028100052EA43060BD0BCEB410F05D80C0DAB437D
:10282000661E342EB6DD02E0AB438018594170BC01
:10283000704770BC70470000F0B540F2FF7581EA48
:10284000030C0CF0004C15EA11541DBF15EA135788
:10285000AC42AF42E5E0BC41C1F31301C3F3130343
:10286000801A994143F4801304D2641E4000494108
:1028700080185941C90241EA5051B1FBF3F603FBFC
:102880001611A2FB0675D7EBC020A94102D2761E15
:1028900080185941C90241EA5051B1FBF3FE03FBD4
:1028A0001E11A2FB0E75D7EBC020A94103D2AEF1D9
:1028B000010E80185941890241EA9051760546EA95
:1028C0008E2EB1FBF3F603FB1611A2FB0675D7EBB8
:1028D0008020A94102D2761E80185941C90241EADE
:1028E00050514EEA060EB1FBF3F603FB1611A2FBA4
:1028F0000675D7EBC020A94102D2761E8018594137
:10290000C90241EA5051B1FBF3F703FB1711A2FBD7
:102910000735D3EBC020A94167F100070CBF004287
:1029200047F0010766F3D5274FEA1E31B80814F5C2
:10293000806412DDBD0775F1004250EB0E5051EB83
:10294000045111F5801F5CBF41EA0C01F0BD4CF051
:102950007F6141F0E0410020F0BDBD076D0840EA15
:102960000E5041F48011D4F10104B4F120060ADACA
:10297000C4F120060200E04001FA06F3E1401843EA
:10298000B24015430EE0342C13DCC6F1200445EAB6
:1029900040056D0820FA06F2154321FA06F0A14021
:1029A0000D43002175F1004250F1000051EB0C0184
:1029B000F0BD00205FEA0C01F0BDCFB992185B4179
:1029C000B3FA83F704BFB2FA82F6BF190B3FB7F12F
:1029D00020062FBF02FA06F3BB40C7F1200622FAF9
:1029E00006F638BF3343BA401CB1E419641E33E71E
:1029F0007F4231F00041B1FA81F404BFB0FA80F6B1
:102A0000A4190B3CB4F120062FBF00FA06F1A14037
:102A1000C4F1200620FA06F638BF3143A0403C1B23
:102A20001AE7AC421ABF05EA1357AF4212E050EA68
:102A300041061CBF52EA4306BFE750EA4107304651
:102A400061461CBF41EA0551F0BD52EA430C08BF84
:102A5000C143F0BD00204FF4001616EB410F98BFA4
:102A600016EB430F08BF16EB410F24BFC14305E02F
:102A700016EB430F0CBF61464CEA0551F0BD000058
:102A8000400D491840EA81200CD2490DA1F5806122
:102A9000491C40F0004005DBD1F11F0154BFC84084
:102AA000C017704700207047014648B1B0FA80F166
:102AB0008840C91CC1F58461090501EBD02140059E
:102AC000704700007047000070B44FF0004591EA75
:102AD000030F7FF547AE6B40841A71EB030604D2F7
:102AE0006E40001BB141121973414FF4001C1CEBE6
:102AF000410F34BF7CEB430682E00C0DA4EB135670
:102B0000362E7BDC012E45EAC32341DC43EA5253D7
:102B100012BFD20292025B08240545EAC12141EAB4
:102B20005051D2EBC020994125D407D1B0FA80F69C
:102B300010FA06F162D00020203608E0B1FA81F6E2
:102B4000B140C6F1200220FA02F21143B0404FEA30
:102B5000F474B4EB465434F001064FEA74040AD816
:102B6000D6F50016760D04F00044F04061FA06F246
:102B70005040F1404840C00A40EA415021F0004135
:102B800028BF5FEA500550F1000044EBD12135E049
:102B9000DB0A45EAC121C90AB6F120050EDD42EA89
:102BA0000242120CC5F1200603FA06F6EB4042EA97
:102BB00006056D42984161F100010DE062FA06F5EB
:102BC000F240554063FA06FC82EA0C02F3405A4098
:102BD0006D42904161EB030111F4801F05D1641E29
:102BE000620502D06D004041494121F48011430843
:102BF00075F1004350F1000041EB045170BC704787
:102C00001CEB410F15D223F0004352EA43060BD0D0
:102C10004FEA4C0CBCEB410F04D80C0D661E342E51
:102C2000B7DDEBE7801A994150EA410608BF002161
:102C3000E4E708BF1CEB430F28BF6FF00001DDE79E
:102C4000DFF8700A002101634163C162C16401655C
:102C50004165C16501664166704780B5DFF8580A75
:102C6000DFF8581AD0ED000A91ED000A00F003F8E1
:102C7000BDE80140E4E7DFF83C1ADFF8440A91EDD3
:102C8000051A30EE410A90ED001A30EE010A80ED8F
:102C9000000A91ED060A30EEC00AD0ED010A30EECE
:102CA000200A80ED010A704710B5DFF8084A2DEDC3
:102CB000048B94ED048A9FED8D0A88EE000A00F0E3
:102CC00035F9DFF8002ADFF8003AFFF7E7FA00F0FD
:102CD00037FDE061DFED8A0ADFF8E40994ED020ACE
:102CE00090ED001AC0EE200A70EE818AC4ED058ACC
:102CF000DFED830A94ED030A90ED011AC0EE200A7D
:102D000094ED100A30EE819A38EEC00A84ED069AEE
:102D100000F00CF900F025F800F012FD94ED110A16
:102D200008EE100A39EE400A84ED0E8A00F0FEF833
:102D300000F017F800F004FD00EE900AC4ED0F0A51
:102D4000C4ED108A84ED119AB0EE480A00F03BFD04
:102D500000F02AFD51EC100B00F0F2FCA06400F032
:102D600085BCDFF86829DFF86839FFF765BD00002A
:102D700080B52DED048B30EE600A9FED5D8B9FEDED
:102D80005E9A09E000F0D2F853EC182BFFF79CFE96
:102D900000F0D6FC00EE100AB4EE490AF1EE10FA8B
:102DA000F0DADFED560A00F033FA0CD500F0BEF889
:102DB000DFF81029DFF81C39FFF786FE00F0C0FCB1
:102DC00000EE100AEDE7BDEC048B01BD80B5DFF825
:102DD000E408D0ED070AFFF7CBFFDFF8FC0890ED21
:102DE000011AF0EE400A90ED020AC0ED020A30EE40
:102DF000600A20EE010A90ED001A00EE810A01BD82
:102E00002DE9F0420446DFF8AC08DFF8D0782DED6C
:102E1000068B90ED079AF0EE408AB0EE608A0E467F
:102E20002046FFF785FC97ED020A00F079F800F0E4
:102E300069F800F06FF800F069F809EE900A204692
:102E4000FFF776FC97ED010A00F06AF800F05AF8F7
:102E500000F060F800F05AF80AEE100A2046FFF77A
:102E600067FC97ED000A30EE090A044630EE680A66
:102E70000D4600F05BF800F045F851EC100B2246CF
:102E80002B46FFF70BFA00F041F808EE900A002EEF
:102E900012BFB1EE480AB0EE480AFFF797FFDFED28
:102EA000A30A00F0B5F9A8BF9FEDA10A06DADFED8D
:102EB000DB0A00F0ADF948BFB0EE600A7AEE000A16
:102EC000FDEEE00A10EE902A78EE800A39EE800AD4
:102ED000BDEC068BFDEEE00ABDE8F042BDEEC00A97
:102EE00010EE901A10EE100A00F06EBC0000344391
:102EF00044174154FB2119C0DB0F4940DA0F49C088
:102F000000007A4441EC100B00F0A5BC81F00041B8
:102F100000F016BC51EC100B2A464B46FFF7BEB929
:102F200030EE090A054630EE680A894610EE100AAE
:102F300000F098BC80B52DED068BB0EE408AF0EE27
:102F4000608AB0EE419AF0EE619AB0EE680A00F045
:102F500099FD20EE08AAB0EE680A00F095FD20EE7B
:102F6000088AB0EE690A00F08DFD60EE098AB0EEC5
:102F7000690A00F089FD20EE090A38EE009A3AEE5F
:102F8000288A28EE080A09EE090A00F07FFDF0EE13
:102F9000408AF0EE480AB0EE490A00F087FDF0EEF4
:102FA000400AB0EE680ABDEC068BBDE8014000F0B7
:102FB0000ABCD0ED000A20EE800A80ED000AD0EDB8
:102FC000010A00F000BC000010B5DFF8E8462DED66
:102FD0000A8BA06D0128F0EE409AB0EE60AAB0EE28
:102FE000418AF0EE618AB0EE429A40F08380E16E51
:102FF000012915D178EECAAA38EE69BAF0EE4B0A6B
:10300000B0EE6A0A00F052FD84ED1C0A2BEE0B0AAA
:103010000AEEAA0A00F03AFD002084ED1E0AE066DE
:10302000D4ED06AA38EEEABAD4ED058A38EE688AFD
:10303000F0EE480AB0EE4B0A00F038FDF0EE40BA70
:1030400028EE080A0BEE0B0A00F020FDB0EE40BAA5
:1030500094ED1C8A38EE6B0AF0EEC0BAB0EE6B0A43
:1030600000F010FD20EE0BCAB0EE6B0A00F00CFD74
:1030700020EE0B0AB0EEC0BAB0EE480A00F002FD36
:10308000F0EE40BAB0EE480A00F0FEFCD4ED1E0AA5
:1030900030EECC1A41EE2B9A01EE00AA79EEE80A46
:1030A0003AEE6A0A00F002FDF0EE40AA9FEDB70A80
:1030B000B4EE40BAF1EE10FA48BF9FEDB50A09D45C
:1030C000F0EE4B0A9FEDB20A04F1840000F024FDFB
:1030D000B0EEC00AB4EE490AF1EE10FAA8BFB0EEA5
:1030E000490AF1EE490AF4EE400AF1EE10FAA8BFDF
:1030F000B0EE600AF0EE6A0ABDEC0A8BBDE8104043
:1031000000F061BB10B5DFF8AC45B0EE601AD4ED4D
:10311000050A70EE600A94ED060A31EE400A00F0EE
:10312000C5FCD4ED070ABDE8104021E60100AF431D
:103130000000AF43B0EE602A71EE400A31EEC20AE1
:1031400000F0B4BC2DE9F0412DED028BB0EE408AC9
:1031500007460E46154618EE100A00F083FBDFF80E
:103160008025DFF88035FFF799F80446AE1B8846C6
:1031700006F13200FFF7DCFADFF86C25DFF86C357A
:10318000FFF78CF822464346FFF79EFCDFF86025E8
:10319000DFF86035FFF798FC00F0D2FA00EE100A75
:1031A0009FEDB21AB4EE410AF1EE10FADFEDB00A6B
:1031B000A8BFB0EE410A04DA00F02AF848BFB0EE2A
:1031C000600ADFF8340580ED010AB1EE040AB4EEBE
:1031D000408AF1EE10FAA8BFDFEDA60A10DA9FEDE3
:1031E000AB0AB4EE408AF1EE10FAA8BFDFEDA80AF0
:1031F00006DAEF1B40F22D118F42A8BFDFEDA50AC2
:10320000C0ED000ABDEC028BBDE8F081DFEDA20A43
:10321000B4EE600AF1EE10FA704700000000AFC390
:10322000F8B50446DFF88C742DED028BD7ED051A46
:10323000786F97ED061A30EE610A70EEC10A60EE03
:10324000008A012882B00D46164640EEA08A0CD1B5
:1032500000217967B0EE680A00F018FC87ED1E0ABD
:10326000324629462046FFF76DFFB0EE680A00F0AF
:103270000DFCD7ED1E0A80EE200AB7EE001A31EEE3
:10328000400AB4EE410AF1EE10FAA8BFB7EE000A08
:1032900006DAB5EE400AF1EE10FA98BF9FED3C0A4F
:1032A000DFED7E1AF4EE610A01EE104AF1EE10FA3B
:1032B000B8EEC11A09D52C1B00EE904AF8EEE00AD0
:1032C000B0EE418A00EE808A44E0DFF82C04D0EDB5
:1032D000001AF4EE401A00EE906AF1EE10FAF8EEE1
:1032E000E00A0DDBB4421BD0341B00EE904AF8EE2E
:1032F000E00A20EE800A80EE210A30EE018A29E001
:1033000090ED011AB4EE401AF1EE10FA0BD5F7EE7B
:10331000001A71EEC11AF4EE401AF1EE10FA02DB57
:10332000B0EE608A16E0B54214D001EE905AF8EE85
:10333000E11AAD1B61EE812A02EE105A72EEE11A1B
:10334000B8EEC22A71EEA00A82EE012A80EE818ACE
:1033500002EE008ABDEEC80A10EE100A8642B8BF1F
:10336000304602DB0028D8BF002002B0BDEC028B43
:10337000F2BDDFF840030121C16741654167C166C5
:103380008166016D0FF2783000F0F5BC6F12833A60
:1033900000000000F8B52DED068BDFF81873B0EED5
:1033A000408AF0EE608AF0EE619A97ED060A70EEC0
:1033B000690AB0EE419A97ED050A30EE490A20EE0F
:1033C000000A04460D46164600F060F9786D0128A3
:1033D00046D1FFF71BFF34DB00F04EF8FFF7AAFEE3
:1033E000B0EE40AA324629462046F0EE690AB0EE19
:1033F000490AFFF715FF0AEE900A9FEDA22A00F096
:103400003BF8FFF7E1FDBD4C204684EC020AB7EE25
:10341000000AFFF7CEFDF0EE4A0AB8EEEA0A00F025
:10342000D2F994EC021AFFF785FD87EC020A97EDBA
:10343000001A97ED010A00F01DF9FFF7E1FC0020EA
:1034400010E0FFF7E5FE0BD50021DFED150A97ED43
:10345000010A2846FFF7D4FCFFF78BFF012001E0AB
:103460004FF0FF30BDEC068BF2BD00009A99193F7A
:10347000CDCCCC3D0AD7A33DF0EE691AB0EE491A87
:10348000F0EE680AB0EE480A704700000100C03F45
:103490008FC2F53D9A99993E0BD7A33C0100003F9E
:1034A000000000002DE9F041824DE96D0446002046
:1034B00001295DD12B6DA3425ADA611E8B427F4EEA
:1034C0007D4F2EDA40F28A286BB94FF4FA724146EA
:1034D0004046D7ED011A96ED011AD7ED000A96ED98
:1034E000000AFFF757FF2B6D93B3E96F01292FD126
:1034F00007F1040C06F1040E0CEB830C0EEB830EAB
:1035000007EB830706EB83034FF4FA72414640460C
:10351000DCED001A9EED001AD7ED000A93ED000ACB
:1035200014E007EB830C07EB830706EB830E06EB37
:1035300083033F1F1E1FC82200219620DCED001AC6
:103540009EED001AD7ED000A96ED000AFFF722FF64
:10355000D5F88010012803D1032902DA491C00E0C4
:1035600000210129C5F8801002D1296D491C296567
:10357000286DA0420FDB002028650021D5ED070A49
:103580009FED4B0AFFF73CFC0020E865BDE8F041E9
:1035900060A000F0F0BBBDE8F081000010B5454C24
:1035A0002DED048BB0EE408AD4ED059A94ED069A89
:1035B000F0EE608A39EEC80A79EE680A20EE000A59
:1035C00082B000F063F8206E012825D1FFF71EFEBF
:1035D00028DBF0EE680AB0EE480AFFF793FDB0EE84
:1035E000409A40F2523232217D20F0EE680AB0EE6D
:1035F000480AFFF715FE00EE100AF0EE490AB8EE91
:10360000C00A00F0E0F884EC020A94ED001A94ED90
:10361000010A00F02FF820E00021D4ED070A94ED14
:10362000010A19E0FFF7F4FD1ED56067002020664F
:1036300019EE100A00F016F9CDE9000119EE900A12
:1036400000F010F902460B4636A000F094FB002172
:10365000DFED170A9FED160A002002B0BDEC048BC7
:10366000BDE81040FFF7CCBB0DF1080DBDEC048B9D
:1036700010BD0000BDEEC11A0021DFED0D0A11EEF4
:10368000100A704700002F4420EE000A00EEA00A46
:1036900000F0FCB9074800210165C0F88010C16541
:1036A0004165C16701214167C166816670470000BD
:1036B0000000000040060020200300200000002041
:1036C0008C0F002044174154FB2109407B14AE4766
:1036D000E17A743FFB211940E4060020F006002047
:1036E000F6285C8FC2F5C8BF091B9E5E29CB603FE0
:1036F0005C8FC2F5285CE9BF08070020940F00200A
:103700000D0A417272697665642021212564200DBD
:103710000A000000454E44205452414345522021A6
:10372000000000000D0A676F5F706F696E745F6163
:103730007272697665642025662C25660D0A000084
:1037400001F000428B1AA3F16051B1F5801F0ADB32
:10375000B1F17F6F1FD242EAC102C10071F1004195
:1037600042EB507070470B15C3F10903212B10D2A7
:10377000890241EA905180020128494141F000410B
:1037800021FA03F0C3F12003994071F10041504147
:103790007047100070476FF0000013EB103F5CBFE4
:1037A000000E42EAC050704780B520EE000A00EEDD
:1037B000A00A10EE100A00F055F841EC100BBDE81D
:1037C000014000F06DBB704710B540F276246043B5
:1037D00040F6340390FBF3F0614391FBF3F3624353
:1037E00040F6340192FBF1F2A0421449C8BF2046D2
:1037F00002DC8842B8BF0846A342C8BF234602DCA9
:103800008B42B8BF0B46A242C8BF224602DC8A42A6
:10381000B8BF0A46002848BF201A002B48BFE31A49
:10382000002A074948BFA21A0A8048808B80054AAF
:103830001068BDE8104080B200F01DBC8AFDFFFF9B
:10384000B00F0020E00C002041EC100B01BD80B552
:1038500000F0D4FEF8E780B551EC100B01F01AF936
:10386000F2E70000C0F3C75181B1FF2906D0C110B3
:10387000400721F0E04101F16051704741020CBF67
:1038800040F4E0016FF000410020704700F000417B
:1038900000020AD0B0FA80FC00FA0CF001F160518D
:1038A000A1EB0C5101EBD02140057047DFED650A1B
:1038B00060EE200A10EE901A21F0004101EE101A7D
:1038C000DFED611AB4EE611AF1EE10FA27D510EEB1
:1038D000902A4FF07C5102F00042114301EE101A81
:1038E00070EE810AFDEEE00A10EE901A00296ED00B
:1038F000FAEEC90A9FED551A00EEC10A9FED541A5F
:1039000000EEC10A9FED531A00EEC10A9FED521A54
:1039100000EEC10A9FED511A00EEC10A57E010EE09
:10392000101A49000916491C10EE101A09D1490055
:103930000816401C02D1090240F083809FED480A1E
:103940007047490004D100287BD0B7EE000A7047C9
:1039500010EE902A4FF07C5102F00042114301EE2C
:10396000101A70EE810A10EE902A51000FD0090E45
:10397000C1F196011829A8BF02F0004205DA012919
:10398000A4BF22FA01F303FA01F200EE902A10EE2E
:10399000901A490017D09FED331A20EE811ADFEDFF
:1039A0002B1A01EE610ADFED2A1A01EE610ADFED42
:1039B000291A01EE610ADFED281A01EE610ADFED36
:1039C000271A01EE610AFDEEE00A10EE901A10EEE1
:1039D000102A22F0004200EE902A9FED231A01F0F7
:1039E0000301F4EE410A0818F1EE10FA00F00101AB
:1039F00003D511B3B7EE000A1FE060EE000A71B103
:103A00009FED1A0A9FED1A1A00EE801ADFED191ABF
:103A100041EE201AB7EE000A01EEA00A0DE0DFED3C
:103A2000161A9FED162A00EEA12ADFED152A20EEC8
:103A3000201A42EE202A01EE220A800748BFB1EE8A
:103A4000400A704783F9223F0000004F0000C9463A
:103A500000A0FD400020A23A000034330030C22E06
:103A6000FFFFFF7F00008038000080399349B2BA21
:103A700036A02A3DDFFFFFBE6E8C4CB94283083C66
:103A8000A1AA2ABE012011E700200FE7B5EEC00A67
:103A9000F1EE10FA02D4B1EEC00A70476FF0004C9C
:103AA00000EE10CAAFF300807047000052EC101A0D
:103AB000B0EEC00AC80F49005200F0EEE00A28BF7D
:103AC0000C3011F1807F38BF12F1807F0CD28A4216
:103AD00038BF80F00400124214D034BF80EE800A58
:103AE00080EE200A00F0D8BF11F1807F08BF80F07F
:103AF000040098BF12F1807F08D88A4214BF0022C8
:103B00004FF07E5200EE102A00F0C6BF6FF0004169
:103B100000EE101A7047000030EE600AD0ED040A83
:103B200070EE600A9FED191A60EE810A90ED061A98
:103B300080ED040ADFED161A41EE210AD0ED071AD6
:103B400090ED031AC0ED060A00EE211AD0ED051A19
:103B5000F4EE411AF1EE10FA5DBFF1EE611AB4EE27
:103B6000611AF1EE10FAB0EE611A80ED031A90EDD1
:103B7000001A20EE010A90ED011A00EE810AD0ED44
:103B8000030A90ED021A00EE810A7047A69BC43E1C
:103B9000A4701D3F10B50146A74C20464022FEF7F9
:103BA0005FFC00F07FF800F001F83EE110B5A34C97
:103BB000206830B90022A2490FF2ED1000F0D6FFC4
:103BC0002060BDE810400FF241120FF2A02100BFAB
:103BD000A4A0A7E01CB59B4C04F1680269462046EE
:103BE00000F066F8009804F1680100F077F86221AF
:103BF000204601F0A7F80020606613BDF8B5054621
:103C00008D4C28682168884220D1002100910268EB
:103C100000F041F8204601F05AF904F1480004F19F
:103C2000AB0110F8012B0AB98842FAD3854E411E28
:103C3000304601F0AFFB307808B1012121646221E8
:103C400004F1480001F07EF800F02CF828687E4D61
:103C5000296888421ED10021009102687B4F7C4E6A
:103C600000F019F8284601F032F93146384601F0E3
:103C700091FB387808B10121616400F0A3F862215A
:103C8000304601F05FF831462846BDE8F84063222F
:103C900001F0D4B8F1BD009241680091009A01682A
:103CA00040687047632204F14801204601F0C6B81D
:103CB000F8B50C4669A61546314601F091FB002780
:103CC00048B10D2F07DA45F827003146002001F0F2
:103CD00087FB7F1CF4E727600020F2BD38B50D4656
:103CE000564A29680446106800F0AEFF020005D06D
:103CF0001268294620469047002032BD5FA000F0A0
:103D00003AF8012032BD000080B500BF5FA000F08E
:103D100032F84A480FF2A1010068BDE808400022CD
:103D200000F0C0BF2DE9F843044689461646082036
:103D3000FDF788F807462046FEF750F9401CFDF7CE
:103D400081F880462046FEF749F9401CFDF77AF8D5
:103D500005462146404601F01DFB4946284601F034
:103D600019FB3A4641463E607D6034480068BDE834
:103D7000F84300F023BF0EB430B52F4C024604F1D7
:103D8000AC0503AB6521284601F04EFB202184F8E9
:103D9000391000F003F830BC5DF810FB82B2294600
:103DA000204601F00FB8000080B501F05BFB00B1C8
:103DB0000120C0B202BD000009684A684FEA000154
:103DC00034A0D8E738B51C4C606CE0B10020204925
:103DD0000A5C0D2A02BF0A1853780A2B08D1492819
:103DE00006DA927E0A2A02BF0A18D37E0D2B0BD068
:103DF000401C6328ECDB002060646221BDE8344095
:103E0000124800F09FBF31BD0844124D811C18229A
:103E10002846FEF715FB104829688160E9680160B3
:103E200029694160FEF740FFE5E72068C16841F07D
:103E30001001C16010BD00006C0A0020AC0F002012
:103E40004F4B0008800B00204C0E0020180C002067
:103E50007C0C00205C0F0020480600202C200D0A5E
:103E60000000000068656C700000000073686F77E8
:103E700020636D642075736167650000636D642065
:103E80006E6F742066696E640D0A000068656C7060
:103E90003A0D0A0025733A2025730D0A0000000030
:103EA00051EC100B00B500F003F841EC100B00BD15
:103EB00040F2FF7C0B0D4DD0634566D230B421EA51
:103EC000035141F4801103F2FD3C5FEA5C0C01D325
:103ED00000184941890041EA907180004FF4401474
:103EE0000023E202D50AB1F5100107D46D081DD2F6
:103EF000091B641900184941491BF7D56D080AD2FE
:103F00000919641B00184941491BEFD56D08F7D307
:103F100001E0520817D0C01861419B1AAC4100184B
:103F20004941801AA941F4D452080AD0C01AA141CB
:103F30009B186C4100184941801AA941E9D45208E4
:103F4000F4D15B1C6C4161084FEA330001EB0C516A
:103F500030BC704750EA0103FBD030B4B1FA81F3B2
:103F600011B9B0FA80F41B190B3BB3F120042FBF39
:103F700000FA04F19940C3F1200420FA04F438BF98
:103F800021439840D3F101039DE7634514BF50EAF4
:103F9000410CDEE711F5801FDBD8D943AFF3008079
:103FA0007047000010B50146394C8AB020462822DF
:103FB000FEF756FA0020002105900691009101912C
:103FC00002910391049101200E210790089009911C
:103FD0002046694601F0F3FA08B101F063FE20467D
:103FE00001F05AFB08B101F05DFE0221204601F00C
:103FF0007EFC08B101F056FE0421204601F077FC5A
:1040000008B101F04FFE234C0020E060A0600820C2
:10401000206100202075606D38B900220FF27D010B
:104020000FF27D0000F0A2FD606501F03DFE0AB0D8
:1040300010BD10B5174C606D04F1500100F004FE86
:10404000010004D004F12800BDE81040084710BD6D
:1040500010B5104C04F1180304F13402002101F0F2
:10406000C7FB606B94ED060B206584ED0A0B012005
:10407000206310BD000080B50A460649086001F1C2
:104080005803034801F046FB00B1012002BD0000C7
:10409000340F0020F00C00207047000000687047CB
:1040A00000680968884201D10020704701207047EC
:1040B0002DE9984C41EC100B2DED028B43EC182BA5
:1040C00053EC102B23F00041B1F5801F82B00DD2CC
:1040D0000022914208BF9042009216D06A4651ECED
:1040E000100BFEF701FA41EC100B0EE0DFF8C844AC
:1040F000DFF8C87404EB115000903B40DFF8C004B7
:10410000924643EA000B4BEC10AB53EC102B51ECF6
:10411000180BFEF7C3F841EC100B4800009A400D55
:104120001218E8B1002A1BDD40F2FF7082420DDB5D
:104130009FEDB31B51EC110B084653EC102B03F011
:104140000041084353EC112B034606E06FF31E5168
:1041500041EA025153EC102B0B4643EC102B0FE0BD
:1041600051EC100B21F000410022914208BF904217
:1041700006D0009A51EC100BFEF71EFA41EC100B22
:1041800068E000002DE9984C41EC100B2DED028BFE
:1041900043EC182B53EC102B23F00041B1F5801F9A
:1041A00082B00DD20022914208BF9042009216D0F8
:1041B0006A4651EC100BFEF797F941EC100B0EE03C
:1041C000DFF8F443DFF8F47304EB115000903B4048
:1041D000DFF8EC03924643EA000B4BEC10AB51ECDA
:1041E000100B53EC182BFEF727FB41EC100B48008B
:1041F000009A400D1218E8B1002A1BDD40F2FF7052
:1042000082420DDB9FED7E1B51EC110B084653ECF7
:10421000102B03F00041084353EC112B034606E03A
:104220006FF31E5141EA025153EC102B0B4643EC45
:10423000102B0FE051EC100B21F0004100229142B5
:1042400008BF904206D0009A51EC100BFEF7B4F96B
:1042500041EC100B02B051EC100BBDEC028BBDE831
:10426000948C0000F8B52DED028B002A41EC180B60
:104270001D4600F0BF8020F0000621F0004700201E
:10428000874208BF864200F0B58048004015401CB8
:1042900002D1090300F0AE80002A9FED5B0B16D51A
:1042A00052420FF2643708261446002C18BF002E25
:1042B00057D0E00707D5D7E9002351EC100BFDF7E5
:1042C000EDFF41EC100B64080837761EEDE779DD51
:1042D0000FF2343708261446E00707D5D7E9002344
:1042E00051EC100BFDF7DAFF41EC100B64100837AE
:1042F000761E002C01DD002EEED153EC102B51EC7C
:10430000180BFFF7D5FE41EC180B20F0000221F04E
:1043100000430020834208BF824253D0480040152A
:10432000401C01D109034DD0002C4BDDA54AA64B02
:1043300051EC180BFFF7BCFE41EC180B20F000020B
:1043400021F000430020834208BF82423AD0480057
:104350004015401C01D1090334D0641E002CE5DC5B
:1043600030E053EC102B51EC180BFFF70BFF41EC36
:10437000180B20F0000221F000430020834208BF08
:1043800082421FD048004015401C01D1090319D0BA
:10439000C4B18E4A964B51EC180BFFF789FE41ECE5
:1043A000180B20F0000221F000430020834208BFD8
:1043B000824207D048004015401C01D1090301D0BA
:1043C000641EE6D151EC180B20F0000221F00043EE
:1043D0000020834208BF824205D048004015401C9F
:1043E00008D1090306D1AFF300801DB1286840F061
:1043F0000100286051EC180BBDEC028BF4BD0000ED
:10440000000000000000F07F000000000000F03F0E
:104410002DE9F14D81B05FEA03082DED028B84B0E8
:104420001CBF0020C8F80000079D0C46934607A853
:1044300001F03CFCC11020F00800012801F0010A45
:1044400030D10220009001AB07992246284601F0A6
:10445000BDFC040008BF9FED670B1ED00298FEF75D
:1044600067F9022C41EC100B17DB03AF661E9FEDC2
:10447000588B51EC100B53EC182BFDF70FFF044633
:1044800057F8040B0D46FEF753F922462B46FEF76C
:104490001BFB761E41EC100BEBD10198434600EB61
:1044A0000B0266E002286BD1009001AB079922460F
:1044B000284601F06FFD040008BF9FED4E0B1ED093
:1044C0000298FEF735F9022C41EC100B17DB03AF15
:1044D000661E9FED418B51EC100B53EC182BFDF732
:1044E000DDFE044657F8040B0D46FEF721F922467F
:1044F0002B46FEF7E9FA761E41EC100BEBD151EC9E
:10450000100B019C4800400D04EB00021DD0002A56
:104510001BDD40F2FF7082420DDB9FED311B51EC41
:10452000110B084653EC102B03F00041084353ECE9
:10453000112B034606E06FF31E5141EA025153EC82
:10454000102B0B4643EC102B11E051EC100B20F01C
:10455000000221F000430020834208BF824206D0BF
:10456000224651EC100BFEF727F841EC100B4346A6
:104570005A4651EC100BFFF775FE41EC100B0AE0A8
:10458000032808BF9FED160B05D004280CBF9FED34
:10459000160B9FED180BBAF1000F05D051EC100B64
:1045A00081F0004141EC100B04B051EC100BBDEC5C
:1045B000028BBDE8FC8D000002FCFFFFFFFF0F80B7
:1045C0000000E03F3CBF737FDD4F1575436FAC6467
:1045D0000000000065CDCD41000000000000B041AA
:1045E000000000000000F07FFFFFFFFFFFFFFF7FE4
:1045F0002806C80A00000000000000000023002276
:10460000002105E700000000000000000000244039
:104610000000000000005940000000000088C34076
:104620000000000084D797410080E03779C3414300
:10463000176E05B5B5B89346F5F93FE9034F384D08
:10464000321D30F94877825A3CBF737FDD4F1575B4
:10465000F8B52DED068B41EC180B154653EC182BD5
:10466000DFF8A003DFF8A013FDF718FE41EC190BEB
:1046700021F00041DFF89423DFF89433FDF76CFF5D
:104680006AD253EC192B9FEDB90B03F0004251ECA9
:10469000100B0C46144353EC102B51EC190B234612
:1046A000FEF712FAFEF726F8040051D0FEF740F8A4
:1046B0000022D84BFDF7F2FD41EC190B53EC192BFE
:1046C0004FF0A040D449FDF7E9FD02460B4651ECFE
:1046D000180BFEF73FF806460F4653EC192B4FF028
:1046E000C040CE49FDF7DAFD02460B46304639465A
:1046F000FEF730F806460F4653EC192B4FF00050EA
:10470000C749FDF7CBFD02460B4630463946FEF75A
:1047100021F806460F4653EC192B0020C149FDF73E
:10472000BDFD02460B4630463946FEF713F80646F5
:104730000F4653EC192B4FF00050BB49FDF7AEFD6F
:1047400002460B4630463946FEF704F841EC180B9A
:1047500004F003046519BAE051EC180B4800401549
:10476000401C51EC180B0DD148004015401C02D1E3
:10477000090340F04181BDEC068B4FF0FF306FF034
:104780000041F4BD21F000410022914208BF904257
:1047900005D1002D00F030819FEDBC8B2CE153EC56
:1047A000192B9FED720B03F0004251EC100B0C46DD
:1047B000144353EC102B51EC190B23460026FEF743
:1047C00083F94B0043EAD0734200B34208BFB242C0
:1047D00041EC190B19D040F23344A4EB5352352A63
:1047E00004DB00F0000001F000410CE0202A03DDB2
:1047F000203AD140914000E001D1002003E0012A9D
:10480000A4BFD040904041EC190B51EC190B20F0A3
:10481000000231F0004308BFB24251D053EC192BD3
:1048200000207C49FDF73AFD41EC1A0B53EC1A2BA2
:104830004FF0A0407849FDF731FD02460B4651ECA0
:10484000180BFDF787FF06460F4653EC1A2B4FF067
:10485000C0407249FDF722FD02460B4630463946FC
:10486000FDF778FF06460F4653EC1A2B4FF0005029
:104870006B49FDF713FD02460B4630463946FDF7FE
:1048800069FF06460F4653EC1A2B00206549FDF7D9
:1048900005FD02460B4630463946FDF75BFF0646EE
:1048A0000F4653EC1A2B4FF000505F49FDF7F6FC12
:1048B00002460B4630463946FDF74CFF41EC180BDB
:1048C00051EC190BFDF716FF00F00300451951ECF0
:1048D000180B21F0004100224FF07953FDF73CFE08
:1048E00005F0010405D2002C00F07E809FED678B5F
:1048F0007AE053EC182B51EC180BFDF7CFFC002C91
:1049000041EC190B36D053EC192B48484849FDF7B8
:10491000C5FC484A484BFEF7D7F853EC192BFDF776
:10492000BDFC464A464BFEF7CFF853EC192BFDF77A
:10493000B5FC444A444BFEF7C7F853EC192BFDF77E
:10494000ADFC424A424BFEF7BFF853EC192BFDF782
:10495000A5FC6FF051023F4BFEF7B6F853EC192B54
:10496000FDF79CFC00223C4B3AE000BF0000000039
:104970000000E03F53EC182BFDF790FC06460F4675
:1049800053EC192B35483649FDF788FC354A364B30
:10499000FEF79AF853EC192BFDF780FC334A344BA1
:1049A000FEF792F853EC192BFDF778FC314A324BA5
:1049B000FEF78AF853EC192BFDF770FC2F4A304BA9
:1049C000FEF782F853EC192BFDF768FC2D4A2E4BAD
:1049D000FEF77AF832463B46FDF760FC53EC182BA5
:1049E000FEF772F841EC180BA80705D551EC180B2F
:1049F00081F0004141EC180B51EC180BBDEC068B1B
:104A0000F4BD000083C8C96D305FE43F0000A0FF23
:104A1000FFFFDF410000303EFB21B941B4101140DF
:104A200026A6513E5C14D33C9A833B3B09260A10D0
:104A300039BA213E3BA861C6F97D92BE63AC309085
:104A40009F01FA3EF6FB51166CC156BFB102555597
:104A50005555A53FFFFFDFBF0000F03FB08F2FC3CC
:104A600010D8E53D8F0C73A1E1E55ABE4DADE44F82
:104A7000E31DC73E3EE3B519A0012ABFFAF01011AD
:104A80001111813F425555555555C5BF00000000D5
:104A90000000F03F0122DBE51AA210EE101A43F2EB
:104AA000A40CC3F6896CF2EC060A614509DB00EE42
:104AB000803A70EE800A83EE200A40F0020010EE89
:104AC000101A4900D1F1E6410BD860EE000A20EE41
:104AD000203A03EE010A01EEA02A42EE202A80EEDF
:104AE000220A400810F0020F18BFB1EE400A02EB94
:104AF0008002D2ED000A30EE200A28BFB1EE400A53
:104B000070470000D7B3DD3F6AD5033F2B94A93D22
:104B1000B82A593F0000803F000080BF000000001D
:104B2000920A063FDB0FC93F920A863FDB0FC93F5F
:104B3000920A0640DB0F4940368D2740884201D05B
:104B40000120704700207047800870477047024678
:104B500041F2055004E012F8013B03EB4011081844
:104B600011780029F7D120F00040704770B5044655
:104B70000D461646FC20FCF765F9210008BF0C4CD9
:104B8000290008BF0B4D310008BF0B4EC460056102
:104B9000466100F11801016000220021036843F81A
:104BA0002120491C1329F9DB4260826070BD00009E
:104BB0003D4B0008494B00084D4B00082DE9F843D8
:104BC00006460D469046002750A40FF2481926B914
:104BD000532200F035F8AFF3008025B9542200F0DD
:104BE0002FF8AFF300803169284688471322B0FBC5
:104BF000F2F902FB1909306850F8294005E02168F4
:104C0000F2682846904790B1A468002CF7D10C2098
:104C1000FCF718F9040010D02560306850F829100E
:104C2000A16040F829407068401C706000E067682F
:104C3000C4F80480B068401CB0603846BDE8F28318
:104C40004946204601F0B0BAF8B505000E4600BF4F
:104C50000FF2B8042FA705D176223946FFF7F1FFEE
:104C6000AFF300802EB977223946FFF7EAFFAFF3A2
:104C7000008029693046884713222B68B0FBF2F286
:104C8000132101FB120053F8204000E0A4683CB15E
:104C90002168EA68304690470028F7D16068F2BD85
:104CA0000020F2BD2DE9F84F06000D4691460FF2A7
:104CB0005C080FF2600B04D1A32200F023F8AFF3DD
:104CC000008025B9A42200F01DF8AFF30080D6F8CB
:104CD00008A00027306850F827400CE020684A46BA
:104CE000211DA847B068824504D0AA2200F00AF826
:104CF000AFF30080A468002CF0D17F1C132FE9DBF8
:104D0000BDE8F18F5946404601F04EBA74657374A0
:104D100000000000443A5C526F626F636F6E436F35
:104D200064655C31395F6672616D655C73696D7075
:104D30006C656C69625C5372635C686173682E6356
:104D400000000000002201F041BA000038B5040064
:104D500001D1012032BD00F022F808B900F023F89B
:104D600000F013F800F024F8FFE7416100F001F8CB
:104D700032BD2068C16841F40051C1600020686004
:104D800020206870A8700020704724206870206878
:104D9000C16821F40051C160204600F038BA04F126
:104DA00038056878704700212970204601F06DBAF7
:104DB0002068016921F4904101612068416921F076
:104DC0002A01704770B5044604F138051346687827
:104DD000202831D109B1180001D1012070BD2878F7
:104DE000012829D001222A702162A384E3840020B3
:104DF000686021206870226B0FF28520D063226BDF
:104E00000FF2A9201064226B0FF2E920D064002079
:104E1000266B30652068021D206B01F03EFC216886
:104E20006FF040000860002028702068416941F060
:104E300080014161002070BD022070BD38B504467C
:104E400004F138051346A87820283ED109B118008E
:104E500001D1012032BD2878012836D001222A70E4
:104E6000A162A385002068602220A870626B0FF207
:104E70004520D063626B0FF275201064626B0FF2F5
:104E80007520D0640020626B10650A462068011D01
:104E9000606B01F002FC0020009020680168009126
:104EA00042680092002200992A70C26842F480721F
:104EB000C2602068416941F0010141612068416997
:104EC00041F040014161002032BD022032BD38B5C1
:104ED000044604F13905206841692A78212A09D15C
:104EE000090607D500F017F808B101F00BFC2046C1
:104EF00000F025F9206841696A78222A09D149061B
:104F000007D500F00EF808B101F0FCFB204600F0D8
:104F10001FF9002032BD416921F080014161206B01
:104F20007047416921F040014161606B704738B5BD
:104F3000044625682968EA686B6911F00F0007D1FB
:104F400088065DD590065BD52046BDE8324013E16A
:104F5000D80702D412F4907F52D0C80705D5D005E7
:104F600003D5E06B40F00100E063480705D5D807A2
:104F700003D5E06B40F00200E063880705D5D80751
:104F800003D5E06B40F00400E063080705D5D807BF
:104F900003D5E06B40F00800E063E06B00286ED0C2
:104FA000890604D5900644BF204600F0E5F8206845
:104FB0004069E16B0A0701D440061BD5204600F08A
:104FC000C7F8206841694A060FD5FFF7AAFF60B10C
:104FD0000FF299110165606B01F0D9FB00284ED0EA
:104FE000606B016DBDE8344008472046BDE83240A3
:104FF00001F0BEBA204601F0BBFA0020E06331BDEB
:1050000008062CD510062AD594F83900212836D167
:10501000A168206AB1F5805F0DD10188C1F3080154
:105020006960206918B9216A881C206207E0206A3B
:10503000411C216203E0411C216200786860E08C21
:10504000401EE08480B2D0B92068C16821F08001A0
:10505000C1602068C16841F04001C16031BD4806AF
:105060000DD550060BD5E86820F04000E8602021FF
:1050700084F839102046BDE8324001F09BBC31BDB8
:10508000816B00680268D30544BF084601F092BCFA
:105090000020C8840868426922F0800242610868E2
:1050A000C16841F04001C16070470000806B01F0B1
:1050B00082BC0000816B00680268D30513D4002015
:1050C000C8850868C26822F48072C26008684269B4
:1050D0005208520042610868426922F0400242616F
:1050E000202081F83A00084601F066BC806B01F090
:1050F00064BC000038B5846B2068406904F1390550
:105100002978212906D1000604D50020E084204614
:1051100000F015F8206840696978222906D1400618
:1051200004D50020E085204600F012F8E06B40F046
:105130001000E0632046BDE8324001F019BA016872
:10514000CA6822F0C002CA60202180F83910704776
:105150000168CA6822F49072CA6001684A695208FC
:1051600052004A61202180F83A107047806B00217C
:10517000C185C18401F0FCB980B590F83A102229AC
:1051800043D18268B2F5805F14D1826A016941B966
:1051900003685968C1F308011180826A911C816219
:1051A00018E001684B6803F0FF031380816A4A1C12
:1051B00082620FE001690029816A04D14A1C82627F
:1051C0000268536805E04A1C82620268536803F073
:1051D0007F030B70C18D491EC18589B299B90168E1
:1051E000CA6822F02002CA600168CA6822F480728C
:1051F000CA6001684A69520852004A61202180F859
:105200003A1001F0D9FB002002BD022002BD2DE9B9
:10521000F0470446642521680A69E06822F4405298
:1052200002430A611926CA6848480240A06802433E
:105230002069024360690243E0690243CA604A6927
:10524000A06922F4407202434A61E3694048414A3E
:10525000B3F5004F3BD1914218BF814210D101F00C
:105260003DFC074601F03AFC804601F037FC8146E0
:1052700001F034FC06FB09F9824601F02FFC0FE037
:1052800001F024FC074601F021FC804601F01EFCE1
:10529000814601F01BFC06FB09F9824601F016FC71
:1052A0006168490000F058F8DB003233B3FBF5F3D6
:1052B0005B00B2FBF5F203F4F87300F05BF8ED006D
:1052C00032356420B5FBF0F000F0070037E0914282
:1052D00018BF81420ED101F001FC074601F0FEFB30
:1052E000804601F0FBFB814601F0F8FB824601F0AD
:1052F000F5FB0DE001F0EAFB074601F0E7FB804615
:1053000001F0E4FB814601F0E1FB824601F0DEFBA7
:1053100006FB09F96168890000F01EF81B013233B1
:10532000B3FBF5F3B2FBF5F203F0F00300F022F863
:105330002D0132356420B5FBF0F000F00F0021683C
:10534000C3188B60BDE8F08700000000F369FFFF21
:1053500000140140001001407743B7FBF1F206FB57
:1053600008F7B7FBF1F3B9FBF1F7B7FBF5F705FB6E
:105370001733704703EB021306FB0AF74643B7FBEC
:10538000F1F2B6FBF1F06421B0FBF1F005FB102562
:10539000704700005FEA000C80EA01039B0715D10B
:1053A000830706D011F8013B00F8013BB3B1830736
:1053B000F8D10A68B2F1013323EA020313F0803F07
:1053C00002BF40F8042B51F8042FF3E711F8013B1A
:1053D00000F8013B13B111F8013BF9E76046704753
:1053E00038B504000D4609D0204601F0B9FB04444D
:1053F000207848B90B4A0021116032BD0948046881
:10540000002CF1D1002032BD2946204601F0B9FB25
:105410002118087810B1002201F8012B2046014A1A
:10542000116032BDBC0F002008B584B00023039387
:1054300000290EBF01930190491E0291009301A91A
:1054400004AB074878441830FBF78AFE019909B18C
:1054500000220A70002858BF039805B000BD00BFA5
:10546000A7BCFFFF81EA00039B0717D1820707D083
:1054700010F8012B11F8013BBAB19A42F6D014E0B2
:1054800002680B689A42A2F1013301BF934313F003
:10549000803F50F8042F51F8043FF3D010F8012B4F
:1054A00011F8013B0AB19A42F8D0D01A70470000B7
:1054B00038B504001ED094F8200010B9204601F041
:1054C00091FB2068016821F00201016001F0C6FB38
:1054D0000546206841688A0762D501F0BFFB401B82
:1054E0000B28F6D304E001F0B9FB401B0B285AD37C
:1054F00000F0F8F8012032BD016821F08001016060
:10550000617E2068012904D1026842F040020260F5
:1055100003E0016821F040010160A17E20680129BB
:1055200004D1026842F02002026003E0016821F029
:1055300020010160E17E2068012904D1026822F087
:105540001002026003E0016841F010010160217F58
:105550002068012904D1026842F00802026003E0D9
:10556000016821F008010160617F2068012904D1F0
:10557000026842F00402026003E0016821F00401C5
:105580000160A268E0682168024320690243606903
:1055900002436068401E0243CA6100206062A9E0C5
:1055A00000F0ADF8054620684168CA079BD5217E0A
:1055B0000129A1D1026842F080020260A0E7F8B59B
:1055C00090F82020012A18BF022A5BD14F4A1068A8
:1055D00040F001001060136823F47C5313601068DE
:1055E0004B6A40EA0320106001200B7D03F01F038B
:1055F00000FA03F3D069DC432040D061444800F551
:10560000117500F51076C86968B9D7682740D7606A
:10561000C8684F6800F039F80F688868C7EA004C1E
:10562000486945F830C0CF69012F0DD1D0681843C3
:10563000D0604F68086800F028F8CE6888684F6925
:10564000C6EA004045F83700886918B95568254012
:10565000556002E0506818435060086918B95569F0
:105660002C40546102E0506918435061086A0128D7
:1056700002D1D1690B43D36110684008400010602B
:105680000020F2BD00F0AAF89FE0D1F814C0C7EAEC
:10569000004046F83C00704738B5044694F82000B6
:1056A000012816D1022184F82010206801684908D9
:1056B0004900016001F0D2FA054620684168C80738
:1056C0000DD501F0CBFA401B0B28F6D300F00AF8F9
:1056D00003E0606A40F400206062012032BD0020D7
:1056E000606232BD606A40F400306062052184F877
:1056F00020107047012084F82000002032BD01688E
:1057000041F00101016001F0A9BA0000006600400B
:1057100000640040F8B590F820400568AD68012CA1
:1057200018BF022C4FD115F0E05F48D0C5F30164DB
:10573000032C03D3416A41F4000146E00125A54052
:105740001D6024010368CE6803F5C0758B681BB922
:105750000B6846EA435603E04F6843EAC7031E431B
:105760002E5105680B6905F5C2763351097D012973
:1057700006D1036803F5C2710D5945F480750D51CA
:105780009379D17955791B0443EA0163117900F0CB
:105790001FF8C1F88C319378D17855781B0443EA0F
:1057A0000163117800F014F8C1F88831006800F541
:1057B000C070015941F0010101510020F2BD416A60
:1057C00041F4001101E000F009F841620120F2BD4E
:1057D00043EA05230B43016821447047416A41F4C1
:1057E00080217047416A41F4802141620120704765
:1057F00078B590F82040012C18BF022C68D1002900
:10580000046801D1E56800E0256915F0030F03D1B4
:10581000416A41F400115DE00D0104F5D876745938
:1058200014F004049460066806F5D87603D1745920
:10583000640D146002E07659F6085660046804F5B9
:10584000D8767659C6F34004D46000F04BF804F0E3
:105850000F04146100F046F8C4F30724946100F0CB
:1058600041F8240C546102682A44D2F8B8211A7015
:1058700002682A44D2F8B821120A5A7004686219E0
:10588000D2F8B821120C9A7004686219D2F8B821C3
:10589000120EDA7000F021F81A7102682A44D2F868
:1058A000BC21120A5A7100F018F8120C9A7100F01B
:1058B00014F8120EDA71006821B9C16841F02001B4
:1058C000C16003E0016941F020010161002072BD67
:1058D000FFF784FF4162012072BD04686219D2F8AB
:1058E000BC21704704682C44D4F8B441704790F848
:1058F0002020012A18BF022A03D1006842691143FF
:1059000000E06FE74161002070472DE9F84F054640
:105910004FF0000828684669D0F804B08468D0F8D1
:105920000C90D0F810A08769F10745D5E10713D591
:1059300001218160A00703D5284601F095F90BE00D
:10594000600748BF4FF4006806D420074EBF4FF4ED
:105950008058284601F089F9E00515D529684FF4EB
:1059600080708860A00503D5284601F07FF90BE020
:10597000600548BF48F4005806D420054EBF48F4DF
:105980008048284601F073F9E00315D529684FF4E3
:1059900080308860A00303D5284601F069F90BE048
:1059A000600348BF48F4004806D420034EBF48F4C3
:1059B0008038284601F05DF9300748BF5FEAC960CA
:1059C00004D52968102048F40078C860700748BFE3
:1059D0005FEA097005D529680820C8602846FEF7E7
:1059E0005BFBB00707D52868C16811F0030F1CBF27
:1059F0002846FEF72DFB700648BF5FEACA6004D553
:105A00002968102048F480680861B00648BF5FEA42
:105A10000A7005D5296808200861284601F02AF98E
:105A2000F00607D52868016911F0030F1CBF28464E
:105A300001F021F9B00348BF5FEACB6005D52968C2
:105A400010204860284601F017F9F00348BF5FEACC
:105A50000B7005D5296808204860284601F00DF92B
:105A6000300440D55FEA4B703AD5F00503D5F8070E
:105A700048BF48F00108B00503D5B80748BF48F053
:105A80000208700503D5780748BF48F004083005C0
:105A900026D517F0700F23D007F07007102F0CD009
:105AA000202F0DD0302F0ED0402F0FD0502F10D0E0
:105AB000602F08BF48F480780DE048F008080AE03D
:105AC00048F0100807E048F0200804E048F04008DB
:105AD00001E048F080082868816921F07001816147
